:020000040800F2
:10000000006C0020D17100083D0700083F07000880
:1000100041070008430700084507000800000000EA
:10002000000000000000000000000000470700087A
:1000300049070008000000000F09010821680008B6
:10004000EB710008EB710008EB710008534D0008DC
:10005000EB710008EB710008EB710008EB71000810
:100060002D5200085752000881520008EB71000819
:10007000EB710008EB710008EB710008EB710008F0
:10008000EB710008EB710008EB710008EB710008E0
:10009000EB710008EB710008EB710008AB5200082F
:1000A000EB710008EB710008EB710008EB710008C0
:1000B000EB710008C74E0008EB710008EB710008F7
:1000C000EB710008EB710008EB710008EB710008A0
:1000D000EB710008656A0008F16B000875410008C3
:1000E00055530008EB710008EB710008EB71000834
:1000F000EB710008EB710008EB710008EB71000870
:10010000EB710008EB710008EB710008EB7100085F
:10011000EB710008EB710008EB710008EB7100084F
:10012000EB710008EB710008EB710008EB7100083F
:1001300000F002F800F0B0F80AA090E8000C824449
:100140008344AAF10107DA4501D100F0A5F8AFF226
:10015000090EBAE80F0013F0010F18BFFB1A43F0A5
:1001600001031847B80B0100D80B01000A444FF0F7
:10017000000C10F8013B13F0070408BF10F8014B06
:100180001D1108BF10F8015B641E05D010F8016B4B
:10019000641E01F8016BF9D113F0080F1EBF10F8AF
:1001A000014BAD1C0C1B09D16D1E58BF01F801CBD2
:1001B000FAD505E014F8016B01F8016B6D1EF9D555
:1001C0009142D6D37047000000230024002500266A
:1001D000103A28BF78C1FBD8520728BF30C148BFAA
:1001E0000B6070476E290FF0CE8270290FF00481EA
:1001F000662910F00584652910F00284672910F043
:10020000FF836129AFF3008003681B0A28BF41F018
:10021000800169290FF0728064290FF06F807529C1
:100220000FF06C806F290FF0B38378290FF0D08026
:10023000E9290FF04B83E4290FF04883F5290FF0EB
:100240004583EF290FF0B083F8290FF0CF800368C2
:10025000DB0928BF41F0800163290FF00E86732966
:100260000FF01386E3290FF01E86F3290FF0238683
:10027000002070471FB50FF073FE0400002000211E
:1002800010F0A8FB401C60600020002110F08CFBE7
:10029000E0601FBD10B510BD0FF035FE1146FFF731
:1002A000E9FF00F021F90FF011FF03B4FFF7F2FFAF
:1002B00003BC06F031FB00000EB5002502AC4FF484
:1002C000FA760022CDE900543346114610460EF06E
:1002D00054FAF6E70EB502A9DD480EF0FAFC002547
:1002E000DC4F02AE0224BC7102F00EFC0022CDE90C
:1002F00000563223114610460EF03FFAF3E710B5D0
:1003000000F083FB05F0C8F8D348D0F8A011C9432A
:10031000C0F8A011D14800214FF40C720378CD48E9
:10032000042B0ED143785B1CDBB24370062B08D341
:10033000CB4C23880A3B9BB223800C2B00D8228015
:100340004170C84B1B78042B0ED143795B1CDBB288
:100350004371062B08D3C44C23880A3B9BB22380ED
:100360000C2B00D822804171C04B1B78042B0ED17E
:1003700003795B1CDBB20371062B08D3BC4C2388CA
:100380000A3B9BB223800C2B00D822800171B94B11
:100390001B78042B0ED1C3785B1CDBB2C370062B19
:1003A00008D3B54C23880A3B9BB223800C2B00D882
:1003B0002280C170B14B1B78042B0ED183785B1C5B
:1003C000DBB28370062B08D3AD4C23880A3B9BB26B
:1003D00023800C2B00D822808170AA4B1B78042B21
:1003E0000ED103785B1CDBB20370062B08D3A64C3E
:1003F00023880A3B9BB223800C2B00D822800170FB
:100400000289521C92B20281B2F5967F04D3018117
:10041000BDE8104003F01DBD10BDF0B58BB008F075
:10042000DAFF09A80CF067FE012109AA08460AF0C4
:100430002CFA09AE0024AFF239100221CDE90010E8
:10044000CDE902461423012290A181480EF0D9FA89
:1004500009F096F88F4D2978491C297009F094F815
:100460000327CDE906474FF40060CC210896CDE97B
:100470000210894A04200594CDE900020494002367
:10048000AFF2AF12844885A1C4380DF0CAF8CDE9A7
:10049000064780200C210896CDE90210824A0520EB
:1004A0000594CDE9000204940023AFF2F3127E48D4
:1004B0007EA1C4380DF0B5F809F062F82978491E1C
:1004C00011F0FF01297007D17B49098821B109F09A
:1004D0005BF80AF04FFD01E009F056F809A9002089
:1004E0000DF080F90BB0F0BDF0B591B0002506F02D
:1004F000A5F94FF4A06006F08BFE00F024FA4FF44B
:10050000E134204606F012FA204603F09AFE204617
:1005100006F05AFA00F0C6F96111122004F0A6FCA8
:1005200001F028FC04F0A2FD05F072F805F057FA7E
:1005300005F036FAA0F56F4113390FD05FA00EF029
:10054000D1FE642006F0BFF91322642109A805F04A
:10055000A5FA9DF83640212C02D003E05EA0EEE71C
:1005600003F020FC3246214662A00EF0BBFE68A0DC
:100570000EF0B8FE4FF4FA64204606F0A4F92046C7
:1005800006F0A1F9334F664E0A3700243046395D34
:1005900007F001FB4021304607F05EFB0128F9D14E
:1005A000641CE4B2072CF1D36D1CEDB2072DECD323
:1005B00003F0B2F902F068F901245A4D01E0C5F8E0
:1005C000B84101F042FF0028F9D10026C5F8B86112
:1005D0005548C0F8A0612048C0F8AC4110A809F007
:1005E000EAFF08F0CDFF2B4C2178491C217008F060
:1005F000CBFF10A9032005960696CDE907014B4BCA
:1006000080210C22CDE90003CDE9022104960023CC
:10061000AFF2F912454846A1C4380DF002F808F0CF
:10062000AFFF2178491E11F0FF01217007D1224947
:10063000098821B108F0A8FF0AF09CFC01E008F04D
:10064000A3FF10A80AF0DDF911B00020F0BD0000F2
:10065000EC290020020000200080224244000020FB
:100660004A000020480000204E00002047000020E3
:1006700052000020460000205600002045000020C7
:100680005C0000204300002062000020746D723185
:10069000000000003C030020280700205461736B19
:1006A00031207461736B0000EC2700207461736B60
:1006B00032207461736B000000030020CFB5CDB30E
:1006C000B3F5CABCBBAF415432344332303ACAA747
:1006D000B0DC0D0A00000000CFB5CDB3B3F5CABC45
:1006E000BBAF415432344332303AB3C9B9A60D0AD4
:1006F00000000000573235717878B6C1B3F6B5C442
:10070000CAFDBEDDCEAA3A25642C25640D0A000080
:10071000CFB5CDB3B3F5CABCBBAFB9FDB3CC000008
:100720000044004000802142000021426404002077
:100730007374617274207461736B00007047FEE71C
:10074000FEE7FEE7FEE77047704700000CB50022A9
:100750004C4800920192016841F4803101604FF4ED
:10076000A063016801F4003101910099491C0091D6
:10077000019911B900999942F3D10168890333D5E0
:100780000121019140490A6842F010020A600A689A
:1007900022F003020A600A6842F002020A6041681D
:1007A000416041684160416841F480614160416855
:1007B00021F47C114160416841F4E8114160016815
:1007C00041F08071016001688901FCD5416821F028
:1007D00003014160416841F0020141604168C1F399
:1007E00081010229FAD10CBD01920CBD254810B53A
:1007F000016841F0010101604168244A11404160F3
:100800000168234A11400160016821F480210160E0
:10081000416821F4FE0141604FF41F018160FFF740
:1008200095FF1C494FF00060086010BD154A10B5D7
:100830005068194B10F00C01184803D0042901D05E
:10084000082901D0036012E05168536801F4701167
:100850004FF0020413F4803F04EB914102D053683F
:100860009B0301D50E4B00E00B4B594301605168CF
:100870000A4AC1F30311121D515C0268CA400260AA
:1008800010BD000000100240002002400000FFF8F0
:10089000FFFFF6FE08ED00E000127A0024000020C1
:1008A00000093D00F8B5012140F2391007F01BFBAB
:1008B000C020ADF800001024FD4E8DF80340032544
:1008C0008DF802506946304606F051FDC021304691
:1008D00006F0B9FDF74F40F2FF36ADF8006069460B
:1008E000384606F044FD3146384606F0AAFD01219F
:1008F000F14806F0C7FD4FF2C000ADF80000EF4E22
:100900008DF803408DF802506946304606F02FFD01
:10091000C021304606F095FD4FF47041304606F098
:1009200092FD4FF44676ADF800608DF80340E44C3C
:100930008DF802506946204606F019FD31462046E2
:1009400006F07FFDF8BD2DE9F84301213C2007F0BA
:10095000CAFA4FF48045ADF800501027D84E8DF8F4
:10096000037003248DF802406946304606F0FFFC10
:100970002946304606F067FDADF800401425DFF843
:100980003C938DF803508DF802406946484606F0C6
:10099000EEFC0321484606F054FD4FF4E056ADF856
:1009A0000060DFF80C838DF803508DF80240694633
:1009B000404606F0DCFC3146404606F042FD4FF46E
:1009C0001060ADF800008DF803708DF802406946A4
:1009D000484606F0CCFC3E013146484606F031FD63
:1009E000F100484606F02FFDADF800608DF8035089
:1009F0008DF80240B34C6946204606F0B8FC3146FB
:100A0000204606F01EFDBDE8F8832DE9F05FAE48F4
:100A1000DFF8B892DFF8B8B200784FF0010A4FF073
:100A2000000800285DD0AB48AB4FAC4E00781A28C8
:100A300013D29BF800001A280FD2A94800781A2870
:100A40000BD2A84800781A2807D2A74800781A289D
:100A500003D2A64800781A281CD3A549022281F89F
:100A600000809D495C3900258A7187F80780002441
:100A70003046395D07F08FF84021304607F0ECF83A
:100A80000128F9D1641CE4B2082CF1D36D1CEDB23D
:100A9000052DECD390485C38817902291BD194490B
:100AA0000978012917D187F807A080F8068000256A
:100AB00000243046395D07F06EF84021304607F0DB
:100AC000CBF80128F9D1641CE4B2082CF1D36D1CD9
:100AD000EDB2052DECD386480078D0B34046C9F876
:100AE000B8017C4C8349844B20781A2819D29BF892
:100AF00000001A2815D27A4800781A2811D27948AD
:100B000000781A280DD2784800781A2809D2774838
:100B100000781A2805D20878022802D0187802280E
:100B20001AD3C9F8B8A181F800806D4984F8008013
:100B30008BF8008081F800806A4981F800806A495A
:100B400081F80080694981F8008083F80080BDE861
:100B5000F09FFFE75046C2E7C9F8B881F7E710B544
:100B6000564C0121204606F06CFC0221204606F07E
:100B70006AFC4F4C4FF4A051204606F062FCE11491
:100B80002046BDE8104006F05EBC10B503214B487E
:100B900006F057FC59480121C0F8B011C0F8AC115B
:100BA000C0F8A81110BD10B5FFF7D9FF474C0020C1
:100BB000C4F8A001484804F5D0745C38406D05F0D5
:100BC00063FE01202060BDE81040DEE710B54C4C0C
:100BD00000220123012802D0022805D008E0C4F831
:100BE0008421C4F8803103E0C4F88431C4F8802142
:100BF0004248A1B1012915D0022916D0032917D0E6
:100C0000042918D005291BD006291ED0072905D193
:100C1000C0F8B031C0F8AC31C0F8A83110BDC0F890
:100C2000B0210AE0C0F8B0210CE0C0F8B0210EE01D
:100C3000C0F8B021EEE7C0F8B031C0F8AC2108E050
:100C4000C0F8B031C0F8AC21E6E7C0F8B031C0F868
:100C5000AC31C0F8A82110BD2DE9F0411E4C002692
:100C600001251A4F5C3C01284CD0022875D003287E
:100C700074D0042873D0224F052871D0062870D173
:100C800001296FD002296ED003296DD0042968D1C3
:100C90000220FFF79BFFC7F89861206D05F0F4FD77
:100CA000C7F898510A2005F0EFFDBDE8F0416CE768
:100CB00000100140002001400002300000140140FB
:100CC000000C01400008014000000020008021428B
:100CD00071020020700200209400002000440040B7
:100CE00072020020730200207402002075020020AE
:100CF0002200002050020020BB0000200000224201
:100D00000080224201290DD002291AD003292CD0BB
:100D1000042926D103210120FFF758FFC7F8A46159
:100D2000206D15E002210120FFF750FFC7F8A461F4
:100D3000A06D05F0A9FDE07908B104F0DFFCA06D1D
:100D400006E003210120FFF741FFC7F8A461606DB1
:100D500005F09AFDC7F8A451A4E715E04EE086E03F
:100D6000C0E094E0F8E007E10EE102210120FFF786
:100D70002DFFC7F8A461E06C05F086FDE07908B1AD
:100D800004F0BCFCE06CE3E701290DD002291AD085
:100D9000032924D004297AD101210846FFF716FF40
:100DA000C7F8A061206D15E005210120FFF70EFFB7
:100DB000C7F8A061A06D05F067FDE07908B104F007
:100DC000AAFCA06D06E001210846FFF7FFFEC7F868
:100DD000A061606D05F058FDC7F8A05162E70521DC
:100DE0000120FFF7F3FEC7F8A061E06C05F04CFDB1
:100DF000E07908B104F08FFCE06CEBE701290CD03E
:100E0000022919D0032923D0042940D10120FFF75A
:100E1000DDFEC7F89061206D15E006210120FFF787
:100E2000D5FEC7F89061A06D05F02EFDE07908B100
:100E300004F07EFCA06D06E004210120FFF7C6FE51
:100E4000C7F89061606D05F01FFDC7F8905129E764
:100E500006210120FFF7BAFEC7F89061E06C05F0AB
:100E600013FDE07908B104F063FCE06CEBE70129C5
:100E70000ED002291BD0032925D0042907D1032134
:100E80000220FFF7A3FEC7F88C61206D16E08BE00F
:100E900002210846FFF79AFEC7F88C61A06D05F0A5
:100EA000F3FCE07908B104F050FCA06D06E00321EA
:100EB0000220FFF78BFEC7F88C61606D05F0E4FC43
:100EC000C7F88C51EEE602210846FFF77FFEC7F80F
:100ED0008C61E06C05F0D8FCE07908B104F035FCD9
:100EE000E06CEBE701290DD002291AD0032924D0A8
:100EF000042959D101210220FFF768FEC7F89C613F
:100F0000206D15E005210220FFF760FEC7F89C6107
:100F1000A06D05F0B9FCE07908B104F023FCA06DE8
:100F200006E001210220FFF751FEC7F89C61606DC9
:100F300005F0AAFCC7F89C51B4E605210220FFF792
:100F400045FEC7F89C61E06C05F09EFCE07908B1B5
:100F500004F008FCE06CEBE706210220FFF736FE08
:100F6000C7F89861A06D05F08FFCE079012801D1E8
:100F700004F005FCA06D91E604210220FFF726FE97
:100F8000C7F89861606D89E606210220FFF71EFE12
:100F9000C7F89861E06C05F077FCE079012801D191
:100FA00004F0EDFBE06C79E6BDE8F0812DE9F0415D
:100FB000FD4EFE4FFE4C307B002501280AD12088D3
:100FC000022802D10321FFF747FE20883988884292
:100FD00000D32580307B4FF00408022837D13888B1
:100FE000A0F1080189B20A18A6F8421092B2831C37
:100FF000A6F84420A6F846301844A6F848002088F1
:10100000884201D0904203D101210220FFF724FE43
:101010002088B6F84610884203D0B6F848108842B7
:1010200003D102210846FFF717FE2088B6F84810C2
:1010300088420CD3A4F80080308E401C80B23086E9
:10104000282808D0502802D3358602F07EFE307B57
:10105000032807D035E039884FF6FF7000EA810099
:101060003880F4E73888A0F1080189B20A1893B2F1
:10107000A6F84210821CA6F84430A6F84620104478
:10108000A6F848002088884201D0984203D1012167
:101090000220FFF7E1FD2088B6F84610884203D011
:1010A000B6F84810884203D102210846FFF7D4FD64
:1010B0002088B6F84810884203D3A4F8008002F0D4
:1010C00044FE307B04282BD1708AA0F1080189B23C
:1010D0000A18A6F8421092B2831CA6F84420A6F87B
:1010E00046301844A6F848002088884201D0904233
:1010F00003D101210220FFF7AFFD2088B6F846108A
:10110000884203D0B6F84810884203D1022108462D
:10111000FFF7A2FD2088B6F84810884200D325804A
:10112000307B05281FD1708F4FF49667B84208D8DE
:10113000208802280BD10321FFF78EFD708FB84263
:1011400005D92088022802D10421FFF785FD708F80
:10115000401C80B27087B0F5166F00D97587208863
:10116000142800D32580307B06283AD1B08AA0F11C
:10117000080189B20A1893B2A6F84210821CA6F898
:101180004430A6F846201044A6F84800208888423B
:1011900001D0984203D101210220FFF75DFD208894
:1011A000B6F84610884203D0B6F84810884203D1FA
:1011B00002210846FFF750FD2088B6F84810884203
:1011C00003D325803078401C30703078052808D350
:1011D000B08A0A3880B2B0820A2801D86420B0826E
:1011E0003570E1E62DE9F0416F4E724F724C307C64
:1011F000002501280BD12088072803D103210620D0
:10120000FFF72AFD20883988884200D32580307C6A
:101210004FF00408022836D13888C11E89B20A1856
:10122000A6F8421092B2C31DA6F84420A6F8463094
:101230001844A6F848002088884201D0904203D183
:1012400001210620FFF708FD2088B6F846108842E5
:1012500003D0B6F84810884203D102210620FFF7D8
:10126000FBFC2088B6F8481088420CD3A4F8008014
:10127000308F401C80B23087282808D0502802D3F5
:10128000358702F086FD307C032807D034E03988AA
:101290004FF6FF7000EA81003880F4E73888C11EFD
:1012A00089B20A1893B2A6F84210C21DA6F84430BB
:1012B000A6F846201044A6F848002088884201D0AD
:1012C000984203D101210620FFF7C6FC2088B6F81A
:1012D0004610884203D0B6F84810884203D1022154
:1012E0000620FFF7B9FC2088B6F84810884203D3DF
:1012F000A4F8008002F04DFD307C04282AD1F08A49
:10130000C11E89B20A18A6F8421092B2C31DA6F8EF
:101310004420A6F846301844A6F8480020888842A1
:1013200001D0904203D101210620FFF795FC2088CF
:10133000B6F84610884203D0B6F84810884203D168
:1013400002210620FFF788FC2088B6F84810884262
:1013500000D32580307C052821D1B08F4FF49667CB
:10136000B84209D8208807280DD103210620FFF7AD
:1013700073FCB08FB84206D92088072803D1042116
:101380000620FFF769FCB08F401C80B2B087B0F533
:10139000166F00D9B5872088142800D32580307CAB
:1013A000062844D1308B09E0380000203A020020A2
:1013B00046020020420200204E020020C11E89B2D7
:1013C0000A1893B2A6F84210C21DA6F84430A6F837
:1013D00046201044A6F848002088884201D0984250
:1013E00003D101210620FFF737FC2088B6F846100C
:1013F000884203D0B6F84810884203D10221062063
:10140000FFF72AFC2088B6F84810884203D32580CD
:101410007078401C70707078052808D3308B0A38BB
:1014200080B230830A2801D8642030837570BBE510
:101430002DE9F041FD4EFE4FFE4CF07B00250128CA
:101440000BD12088062803D103210520FFF704FCD7
:1014500020883988884200D32580F07B4FF004082B
:10146000022836D13888011F89B20A18A6F842101E
:1014700092B2831DA6F84420A6F846301844A6F878
:1014800048002088884201D0904203D101210520E4
:10149000FFF7E2FB2088B6F84610884203D0B6F882
:1014A0004810884203D102210520FFF7D5FB208890
:1014B000B6F8481088420CD3A4F80080F08E401C87
:1014C00080B2F086282808D0502802D3F58602F092
:1014D00057FCF07B032807D034E039884FF6FF70C3
:1014E00000EA81003880F4E73888011F89B20A18C1
:1014F00093B2A6F84210821DA6F84430A6F8462002
:101500001044A6F848002088884201D0984203D1B0
:1015100001210520FFF7A0FB2088B6F8461088427D
:1015200003D0B6F84810884203D102210520FFF706
:1015300093FB2088B6F84810884203D3A4F80080B3
:1015400002F01EFCF07B04282AD1708B011F89B2A7
:101550000A18A6F8421092B2831DA6F84420A6F8F5
:1015600046301844A6F848002088884201D09042AE
:1015700003D101210520FFF76FFB2088B6F8461044
:10158000884203D0B6F84810884203D102210520D2
:10159000FFF762FB2088B6F84810884200D3258008
:1015A000F07B052821D1F08F4FF49667B84209D817
:1015B000208806280DD103210520FFF74DFBF08F71
:1015C000B84206D92088062803D104210520FFF758
:1015D00043FBF08F401C80B2F087B0F5166F00D946
:1015E000F5872088142800D32580F07B062839D180
:1015F000B08B011F89B20A1893B2A6F84210821D5F
:10160000A6F84430A6F846201044A6F848002088E2
:10161000884201D0984203D101210520FFF71CFB2D
:101620002088B6F84610884203D0B6F848108842A1
:1016300003D102210520FFF70FFB2088B6F84810E0
:10164000884203D32580B078401CB070B07805285C
:1016500008D3B08B0A3880B2B0830A2801D864203E
:10166000B083B570A0E42DE9F041704E724F734C19
:10167000B07B002501280BD12088052803D1032148
:101680000420FFF7E9FA20883988884200D32580B2
:10169000B07B4FF00408022836D13888411F89B248
:1016A0000A18A6F8421092B2431DA6F84420A6F8E4
:1016B00046301844A6F848002088884201D090425D
:1016C00003D101210420FFF7C7FA2088B6F846109D
:1016D000884203D0B6F84810884203D10221042082
:1016E000FFF7BAFA2088B6F8481088420CD3A4F85D
:1016F0000080B08E401C80B2B086282808D05028C8
:1017000002D3B58602F033FBB07B032807D034E068
:1017100038884FF6FF7101EA80003880F4E7388896
:10172000411F89B20A1893B2A6F84210421DA6F8CA
:101730004430A6F846201044A6F848002088884285
:1017400001D0984203D101210420FFF785FA2088B7
:10175000B6F84610884203D0B6F84810884203D144
:1017600002210420FFF778FA2088B6F84810884252
:1017700003D3A4F8008002F0FAFAB07B04282AD13F
:10178000F08B411F89B20A18A6F8421092B2431D8D
:10179000A6F84420A6F846301844A6F84800208849
:1017A000884201D0904203D101210420FFF754FA6E
:1017B0002088B6F84610884203D0B6F84810884210
:1017C00003D102210420FFF747FA2088B6F8481019
:1017D000884200D32580B07B052821D1708C4FF43E
:1017E0009667B84209D8208805280DD10321042026
:1017F000FFF732FA708CB84206D92088052803D149
:1018000004210846FFF728FA708C401C80B27084CF
:10181000B0F5166F00D975842088142800D3258070
:10182000B07B062844D1308C411F09E038000020ED
:10183000400200204C0200203E0200204A0200200C
:1018400089B20A1893B2A6F84210421DA6F8443095
:10185000A6F846201044A6F848002088884201D007
:10186000984203D101210420FFF7F6F92088B6F849
:101870004610884203D0B6F84810884203D10221AE
:101880000420FFF7E9F92088B6F84810884203D30E
:101890002580F078401CF070F078052808D3308C53
:1018A0000A3880B230840A2801D864203084F57068
:1018B00097E42DE9F041FE4EFE4FFF4C707B002572
:1018C00001280BD12088042803D103210846FFF703
:1018D000C3F920883988884200D32580707B02288C
:1018E00036D13888811F89B20A18A6F8421092B200
:1018F000031DA6F84420A6F846301844A6F8480070
:101900002088884201D0904203D101210320FFF7B3
:10191000A3F92088B6F84610884203D0B6F84810DC
:10192000884203D102210320FFF796F92088B6F8F8
:10193000481088420CD302202080708E401C80B258
:101940007086282808D0502802D3758602F006FA3F
:10195000707B032807D034E038884FF6FF7101EA26
:1019600080003880F4E73888811F89B20A1893B262
:10197000A6F84210021DA6F84430A6F846201044EE
:10198000A6F848002088884201D0984203D101215E
:101990000320FFF761F92088B6F84610884203D08B
:1019A000B6F84810884203D102210320FFF754F90A
:1019B0002088B6F84810884203D30420208002F023
:1019C000CDF9707B04282AD1B08C811F89B20A1806
:1019D000A6F8421092B2031DA6F84420A6F846309D
:1019E0001844A6F848002088884201D0904203D1CC
:1019F00001210320FFF730F92088B6F8461088420D
:101A000003D0B6F84810884203D102210320FFF723
:101A100023F92088B6F84810884200D32580707BCF
:101A2000052821D1308D4FF49667401C80B2308557
:101A3000B84209D8208804280DD103210846FFF7B1
:101A40000BF9308DB84206D92088042803D104212F
:101A50000320FFF701F9308DB0F5166F00D93585F9
:101A60002088142800D32580707B062839D1F08C7B
:101A7000811F89B20A1893B2A6F84210021DA6F877
:101A80004430A6F846201044A6F848002088884232
:101A900001D0984203D101210320FFF7DDF820880F
:101AA000B6F84610884203D0B6F84810884203D1F1
:101AB00002210320FFF7D0F82088B6F848108842AA
:101AC00003D325803079401C30713079052808D344
:101AD000F08C0A3880B2F0840A2801D86420F0849F
:101AE0003571A4E42DE9F041714E744F744CF07AD5
:101AF000002501280BD12088032803D103210120D0
:101B0000FFF7AAF820883988884200D32580F07A28
:101B10004FF00408022836D13888C11F89B20A184C
:101B2000A6F8421092B2C31CA6F84420A6F846308C
:101B30001844A6F848002088884201D0904203D17A
:101B400001210846FFF788F82088B6F84610884239
:101B500003D0B6F84810884203D102210120FFF7D4
:101B60007BF82088B6F8481088420CD3A4F800808F
:101B7000F08D401C80B2F085282808D0502802D370
:101B8000F58502F0DAF8F07A032807D034E03888D7
:101B90004FF6FF7101EA80003880F4E73888C11FF2
:101BA00089B20A1893B2A6F84210C21CA6F84430B3
:101BB000A6F846201044A6F848002088884201D0A4
:101BC000984203D101210846FFF746F82088B6F86D
:101BD0004610884203D0B6F84810884203D102214B
:101BE0000120FFF739F82088B6F84810884203D35F
:101BF000A4F8008002F0A1F8F07A04282AD1708DB0
:101C0000C11F89B20A18A6F8421092B2C31CA6F8E6
:101C10004420A6F846301844A6F848002088884298
:101C200001D0904203D101210846FFF715F8208822
:101C3000B6F84610884203D0B6F84810884203D15F
:101C400002210120FFF708F82088B6F848108842E2
:101C500000D32580F07A052826D1B6F840004FF44D
:101C60009667B8420AD8208803280ED103210120A4
:101C7000FEF7F2FFB6F84000B84206D920880328E4
:101C800003D104210120FEF7E7FFB6F84000401C15
:101C900080B2A6F84000B0F5166F01D9A6F8405002
:101CA0002088142800D32580F07A062844D109E042
:101CB000380000203C0200204802002038020020AA
:101CC00044020020B08DC11F89B20A1893B2A6F851
:101CD0004210C21CA6F84430A6F846201044A6F8CC
:101CE00048002088884201D0984203D1012108464B
:101CF000FEF7B2FF2088B6F84610884203D0B6F847
:101D00004810884203D102210120FEF7A5FF208858
:101D1000B6F84810884203D37079401C7071258052
:101D20007079052808D3B08D0A3880B2B0850A28AA
:101D300001D86420B085757194E410B50C4C002076
:101D4000C4F88C01C82004F5C67404F0BCFD012061
:101D5000206010BD10B5064C0020C4F88C01C820CE
:101D600004F5C67404F0AFFD0120206010BD000032
:101D700000002242F8B50121702006F0B4F841209D
:101D80001025ADF800008DF8035003248DF80240B3
:101D90006946FE4E304605F0EAFA4121304605F02C
:101DA00050FB6F01ADF80070F94E8DF803508DF8BF
:101DB00002406946304605F0DAFA3946304605F009
:101DC00040FB2002ADF8000048258DF803508DF847
:101DD00002406946EF4805F0CAFA4FF40F70ADF8BB
:101DE00000008DF803508DF802406946304605F03A
:101DF000BEFAF8BD70B5E848D0F82061D0F82421CB
:101E0000E648D0F80831D0F80C41D0F81011D0F8DD
:101E10001451700100EB021000EBC30000EB8400D2
:101E200000EB41002844C0B270BD2DE9F047D84F07
:101E300001213F1DD94DD54ED94AD64CDFF85893D4
:101E4000DFF84CA34FF0000801287DD002287CD198
:101E5000306820F00F003060306840F003003060E0
:101E6000C2F88081336823F070633360336843F0D5
:101E700040733360C2F898113A6822F0F0023A6079
:101E80003A6842F030023A60C5F8A481606820F0F8
:101E90000F006060606840F003006060C9F8A01146
:101EA000626822F0F0026260626842F030026260B2
:101EB000C9F8A411DAF80020504622F47062CAF87A
:101EC0000020DAF8002042F44072CAF80020C5F879
:101ED0008811DAF8002022F47042CAF80020DAF8FB
:101EE000002042F44052CAF80020C5F88C11DAF8FC
:101EF000002022F470220260026842F44032026044
:101F0000C5F89011026822F470020260026842F47F
:101F100040120260C5F89411616821F00F01616000
:101F2000616841F008016160616821F0F001616061
:101F3000616841F080016160016821F470610160B5
:101F4000016841F4006101E01BE018E001600168F4
:101F500021F470410160016841F4004101600168B1
:101F600021F470210160016841F4002101600168E1
:101F700021F470010160016841F400010160BDE8D5
:101F8000F087386820F0F0003860386840F03000A2
:101F90003860C5F8A411306820F00F003060306858
:101FA00040F003003060C2F88011142005F5C475BC
:101FB00004F089FC306820F00F003060306840F099
:101FC00008003060386820F0F0003860386840F071
:101FD00080003860606820F00F006060606840F04A
:101FE000030060604146C9F8A081626822F0F002F7
:101FF0006260626842F030026260C9F8A481DAF877
:102000000020504622F47062CAF80020DAF800205E
:1020100042F44072CAF800202960DAF8002022F465
:102020007042CAF80020DAF8002042F44052CAF8A0
:1020300000206960DAF8002022F470220260026851
:1020400042F440320260A960026822F47002026029
:10205000026842F440120260E96090E75048D0F80C
:1020600000014E498000D1F82411801C084400066C
:10207000800C704770B50120FFF7D7FEFFF7EEFF29
:102080004FF4E0750146A84237D046A00DF02AF97A
:102090004848C1788170FFF7E1FF0446A8422CD080
:1020A0000220FFF7C2FEFFF7A5FE0546014642A04B
:1020B0000DF018F9601940F29F12A0F29F119042A2
:1020C0002FD00EDCFB2823D006DCDF2817D0EF282A
:1020D0001AD0F72811D119E0FD281BD0FE280CD109
:1020E0001AE01C2922D004DC102924D0182904D19C
:1020F0002DE01E2924D01F2927D0002070BD32A03A
:102100000DF0F0F8012070BD022070BD032070BDFD
:10211000042070BD052070BD30A00DF0E3F806204E
:1021200070BD33A00DF0DEF80D2070BD37A00DF0AE
:10213000D9F80E2070BD3CA00DF0D4F8102070BD71
:1021400040A00DF0CFF80F2070BD122070BD45A04B
:102150000DF0C8F8112070BD2DE9F041484F494EEF
:10216000002500243046395D05F015FD402130463C
:1021700005F072FD0128F9D1641CE4B2082CF1D3FA
:102180006D1CEDB2052DECD3BDE8F08100180140C7
:102190000014014000100140000022420080224251
:1021A00000002342B6C1B5BDD0D0C2EB33A3BA25DF
:1021B000580D0A009D000020B6C1B5BDC1D0C2EBCC
:1021C000A3BA255800000000C9A8C3E8B5BDBCFCEF
:1021D000C5CCC2F0305844460D0A0000C9A8C3E877
:1021E000B5BDBCFCC5CCC2F0305846450D0A000058
:1021F000C9A8C3E8B5BDBCFCC5CCC2F020CCBDD1DC
:10220000A82030583139460D0A000000C9A8C3E89B
:10221000B5BDBCFCC5CCC2F020CDA8B5C0442030B3
:10222000583142420D0A0000C9A8C3E8B5BDBCFC44
:10223000C5CCC2F020B2A8D0CE2030583141460DD6
:102240000A000000C9A8C3E8B5BDBCFCC5CCC2F0FB
:1022500020D6DCC6DA20CFC22030583142440D0AE5
:1022600000000000C9A8C3E8B5BDBCFCC5CCC2F0E5
:102270002020CAB1BCE4202030583142450D0A006C
:10228000BC010020004400402DE9F047FE490868E9
:1022900020F00F000860086840F003000860FB4A67
:1022A0004FF001094846C2F880910B6823F0706333
:1022B0000B600B6843F040730B604FF00008C2F8EE
:1022C0009881F3490A6822F0F0020A600A6842F035
:1022D00030020A60EF4CC4F8A401EF4F796821F096
:1022E0000F017960796841F003017960EB4DC5F821
:1022F000A001796821F0F0017960796841F030013E
:102300007960C5F8A401E24E361F316821F470618E
:102310003160316841F440713160C4F8880131683E
:1023200021F470413160316841F440513160C4F8AA
:102330008C01316821F470213160316841F4403101
:102340003160C4F89001316821F470013160316866
:1023500041F440113160C4F89401052004F59474EF
:1023600005F5D07504F0AFFA786820F00F007860BA
:10237000786840F008007860786820F0F0007860B5
:10238000786840F080007860306820F470603060D9
:10239000306840F400603060306820F47040306095
:1023A000306840F400403060306820F470203060C5
:1023B000306840F400203060306820F470003060F5
:1023C000306840F40000306055F8802C55F87C5C93
:1023D00054F8203C54F81C1C54F8180C54F8144CB5
:1023E00000016601AE4CC9009B00267460746D004C
:1023F00030440844A1741844E374284425751044FB
:102400006275C0B2E0752070A64A217E5054491C06
:10241000C9B22176022911D384F81880117881423B
:102420000AD15178814207D104F21F113F28C871A7
:1024300002D19D4981F80090FFF78EFE20783F2859
:1024400001D001209BE5002099E52DE9F0418E495E
:102450000025086820F00F000860086840F00300BD
:1024600008608A4A0120C2F880010B6823F070637B
:102470000B600B6843F040730B600021C2F89811A9
:1024800083490A6822F0F0020A600A6842F03002CA
:102490000A60804CC4F8A4017F4F796821F00F01D5
:1024A0007960796841F003017960DFF8F081C8F85C
:1024B000A001796821F0F0017960796841F030017C
:1024C0007960C8F8A401724E361F316821F470613A
:1024D0003160316841F440713160C4F8880131687D
:1024E00021F470413160316841F440513160C4F8E9
:1024F0008C01316821F470213160316841F4403140
:102500003160C4F89001316821F4700131603168A4
:1025100041F440113160C4F89401642004F59474CE
:1025200004F0D1F9786820F00F007860786840F006
:1025300008007860786820F0F0007860786840F0F3
:1025400080007860306820F470603060306840F45B
:1025500000603060306820F470403060306840F4D3
:1025600000403060306820F470203060306840F403
:1025700000203060306820F470003060306840F433
:1025800000003060D8F82031D8F8247154F8206C5D
:1025900054F81C2C54F8181C54F8140CDFF8008163
:1025A0004401090188F8104088F81110D200B600E3
:1025B0007F002144114488F81220314488F81360C8
:1025C0003944404688F81470194488F81530C9B267
:1025D000C175017098F82500884218D008F21F17BD
:1025E00088F82510314EF97100243046395D05F028
:1025F000D2FA4021304605F02FFB0128F9D1641CA6
:10260000E4B2082CF1D36D1CEDB2052DECD398F893
:1026100000003F2801D00120B6E50020B4E52049A4
:102620004A7F824202D048770120704700207047DD
:102630002DE9F84F0121602005F055FC0124ADF88B
:10264000004004274FF0030ADFF83CB08DF8037018
:1026500056468DF802A06946584604F088FE650289
:10266000ADF800508DF803708DF80260084E694691
:10267000361F304604F07BFE2946304604F0E1FE6A
:102680000020024914E0000000180140000023422D
:102690000414014000802242001001400000224248
:1026A0009D000020202A002022000020004400403D
:1026B000C1F898010A2004F006F9F648D0F8202164
:1026C000D0F82481F448D0F808C1D0F80C71D0F8C3
:1026D0001011D0F81401DFF8C4934301090189F8FF
:1026E000103089F81110FF004FEA8C0C4FEA4808AF
:1026F00019443944614489F81270414489F813C07F
:10270000114489F81480C9B289F8152089F8171086
:102710000846FFF784FF88B199F8170089F8000090
:102720004F46DFA00CF0DEFDF87D09F21F113F28B7
:10273000C87101D1DF480470FFF70EFDADF800400D
:1027400010278DF8037054468DF802A06946D846CC
:10275000584604F00CFE0121404604F072FEADF82C
:1027600000508DF803708DF802406946304604F041
:10277000FEFD2946304604F064FE0020BDE8F88FD7
:102780002DE9F05FCC490020C1F880010120C1F89B
:102790009801DFF804A3CAF8A4010A200AF584749A
:1027A00004F091F8DFF8ECB2DBF82011DBF824013B
:1027B00001F0FF0900F0FF082068C7B26068C6B2E8
:1027C000A068C5B2E068C4B2B448007F48B1B9F1AE
:1027D000000F0AD0B8F1000F07D037B12EB125B1E4
:1027E0001CB1B9F1010F3FD04CE00A2004F06BF8A6
:1027F000AA490020B9F1000F08770AD0B8F1000FFC
:102800000FD0AFB1DEB10DB33CB3C82004F05BF81C
:1028100038E001205946D1F82021002AFBD0BDE83C
:10282000F09F02205946D1F82421002AFBD0F6E778
:1028300003205146D1F80821002AFBD0EFE70420FD
:102840005146D1F80C21002AFBD0E8E7052051467B
:10285000D1F81021002AFBD0E1E706205146D1F83B
:102860001421002AFBD0DAE7B8F1010F0AD1012FB9
:1028700008D1012E06D1012D04D1012C02D18749A6
:10288000012008770020CAE7F0B584488B4A26303B
:10289000031D817811708A4A99781D1D1170894A2B
:1028A000A9782C1D1170884AA178884E1170221DBC
:1028B000874F91783170111D8E783E704078854E2B
:1028C00000EB8000400030805878834B00EB8000A4
:1028D000400018806878814B00EB80004000188031
:1028E00060787F4B00EB80004000188050787D4A74
:1028F00000EB80004000108048787B4900EB8000AE
:1029000040000880F0BD654800B5263085B00178EC
:102910008DF8001041788DF8011080788DF8020054
:102920005E482A3001788DF803105C4940782E31DA
:102930008DF8040088788DF805000A788DF8062057
:1029400049788DF8080055488DF807103230132269
:1029500001788DF8091041788DF80A1080788DF88B
:102960000B004E48363001788DF80C1041788DF808
:102970000D1080788DF80E0048483A3001788DF8B7
:102980000F1041788DF8101080788DF811002120FB
:102990008DF812006421684603F016F90A2003F04E
:1029A00092FF13226421684603F00EF90A2003F017
:1029B0008AFF13226421684603F006F90A2003F017
:1029C00082FF13226421684603F0FEF805B000BDC3
:1029D0002DE9F05F38494FF0010B0024C1F880B1B8
:1029E000C1F898B12C4DC5F8A4410A2005F58475AD
:1029F00003F069FF2748D0F82011D0F82401C9B2AC
:102A00005FEA010A00F0FF09286800F0FF08686823
:102A1000C7B2A868C6B2E868C5B25846DFF87CB04D
:102A20008BF81B0008D0B9F1000F05D0B8F1000FEA
:102A300002D00FB106B18DB90A2003F044FF002087
:102A40008BF81B00BAF1000F0AD0B9F1000F4DD07E
:102A5000B8F1000F4CD0D7B1D6B1D5B10020DEE629
:102A60000D25C82003F02FFF0A4E04E0C82003F014
:102A70002AFF641CE4B2D6F820010028F6D0082C06
:102A800000D313250F2C00D314252846C7E631E0C8
:102A900032E033E000002242008022429D0000200C
:102AA000B8FCD0C2B5E7C2F6B3E5BCFCC5CCD6B520
:102AB0000D0A0000220000200000234243000020F5
:102AC0004400002045000020460000204700002070
:102AD00048000020380200203A0200203C0200207A
:102AE0003E0200204002002042020020102406E0A6
:102AF000112404E00E2402E00F2400E01224C82078
:102B000003F0E1FE20468AE62DE9F05FFFF760FF63
:102B1000DFF8008407464FF0000B0124FE4E142816
:102B200049D198F81A00454678B10020A8760021CE
:102B3000FA4805F0EFFDC82003F0C5FEA87EF84A6C
:102B4000F84920B1CC71147017E00120EEE781F84C
:102B500007B082F800B0F44A82F800B0F34A82F875
:102B600000B0F34A82F800B0F24A82F800B0F24AAC
:102B700082F800B0F14A82F800B04FF000098A46AE
:102B8000002530461AF8051005F005F840213046BA
:102B900005F062F80128F9D16D1CEDB2082DF0D3D3
:102BA00009F1010000F0FF09B9F1050FE8D3012197
:102BB000DA4805F0AFFDDFF888A3132F02D00D2F00
:102BC00006D035E0062188F81E10FFF79CFE3EE097
:102BD0000721AAF8001098F81900D249C04310F054
:102BE000FF0088F81900A1F1090101D0CC7101E0C2
:102BF00081F807B04FF000090025CA480938415D47
:102C0000304604F0C8FF4021304605F025F8012881
:102C1000F9D16D1CEDB2082DEFD309F1010000F0E0
:102C2000FF09B9F1050FE7D398F8031088F80210EF
:102C300002250E2F21D0B74926310F2F72D001F176
:102C40004E02102F6FD0112F6ED0122F6DD0FFF7C4
:102C500097FDB44F0322BB4B1B3F062871D00528BC
:102C600070D0B94904286ED003286DD002286CD0EA
:102C700001286BD0FFF7DCFCFDE30720AAF8000079
:102C800098F801004146401CC0B288F801000728AE
:102C900000D34C70AD4898F801100027C1718146EF
:102CA000B0460026404619F8061004F074FF402193
:102CB000994804F0D1FF0128F9D1761CF6B2092E0B
:102CC000F0D37F1CFFB2052FEBD3142003F0FBFDE4
:102CD000944E9048513E06F10907407806F11208DB
:102CE00006F11B0906F1240A06F12D0B01280AD072
:102CF00002280BD003280ED0042817D0052826D090
:102D000006282DD036E0F471FD7101E0F571FC71FB
:102D100088F8075003E0F571FD7188F8074089F8DD
:102D2000075009E09BE0A8E192E280E3F571FD71B4
:102D300088F8075089F807408AF807508BF8075041
:102D400018E0FCE3FCE3FCE3FCE3FCE3FCE3F571EB
:102D5000FD7188F8075089F807508AF80740EDE7B9
:102D6000F571FD7188F8075089F807508AF8075007
:102D70008BF807400A2003F0A6FD674D0024284683
:102D8000315D04F008FF4021284604F065FF01286A
:102D9000F9D1641CE4B2082CF1D30A2003F093FDAE
:102DA00000242846395D04F0F6FE4021284604F050
:102DB00053FF0128F9D1641CE4B2082CF1D30A2096
:102DC00003F081FD002446462846315D04F0E3FE11
:102DD0004021284604F040FF0128F9D1641CE4B2E8
:102DE000082CF1D30A2003F06EFD00244E4628463D
:102DF000315D04F0D0FE4021284604F02DFF01286B
:102E0000F9D1641CE4B2082CF1D30A2003F05BFD75
:102E1000002456462846315D04F0BDFE4021284678
:102E200004F01AFF0128F9D1641CE4B2082CF1D394
:102E30000A2003F048FD00245E462846315D04F078
:102E4000AAFE4021284604F007FF0128F9D1641C9E
:102E5000E4B2082CF1D32F48C17881700BE307202E
:102E6000AAF8000098F80100C146012820D188780E
:102E7000062801D38C7001E0401C887029488978AD
:102E800087380027C17180460025304618F80510A4
:102E900004F081FE4021304604F0DEFE0128F9D125
:102EA0006D1CEDB2082DF0D37F1CFFB2052FEBD3C4
:102EB00099F80100022822D116492A31887806287B
:102EC00001D38C7001E0401C8870164889787E38E8
:102ED0000027C17180460025304618F8051004F01F
:102EE0005AFE4021304604F0B7FE0128F9D16D1C8E
:102EF000EDB2082DF0D37F1CFFB2052FEBD399F86C
:102F0000010003283FD103492E31887806281FD3BA
:102F10008C701FE09D000020004400400004004031
:102F20003F000020CE01002051020020520200206C
:102F300053020020540200205502002056020020B7
:102F400012000020000022420080224218000020CF
:102F5000401C8870FE4889780027C1718046002592
:102F6000304618F8051004F016FE4021304604F0F3
:102F700073FE0128F9D16D1CEDB2082DF0D37F1C32
:102F8000FFB2052FEBD399F80100042822D1F049B4
:102F90008A398878062801D38C7001E0401C88703B
:102FA000EB48897809300027C171804600253046FA
:102FB00018F8051004F0EFFD4021304604F04CFEF7
:102FC0000128F9D16D1CEDB2082DF0D37F1CFFB2A2
:102FD000052FEBD399F80100052822D1DC49863969
:102FE0008878062801D38C7001E0401C8870D8488E
:102FF000897812300027C17180460025304618F8C4
:10300000051004F0C8FD4021304604F025FE0128DB
:10301000F9D16D1CEDB2082DF0D37F1CFFB2052F46
:10302000EBD399F80100062820D1C9498239887864
:10303000062801D38C7001E0401C8870C44F88784A
:103040001B370025F87100243046395D04F0A3FDDC
:103050004021304604F000FE0128F9D1641CE4B29E
:10306000082CF1D36D1CEDB2052DECD399F80310AB
:1030700089F80210FFF708FC29E30723AAF80030BB
:1030800098F80100C14601281ED14878022801D8CD
:103090004D7001E0401E48704878D071002790467E
:1030A0000024304618F8041004F075FD4021304625
:1030B00004F0D2FD0128F9D1641CE4B2082CF0D34D
:1030C0007F1CFFB2052FEBD399F80100022822D113
:1030D0009F4992394878022801D84D7001E0401E7E
:1030E00048709B4849783F380027C17180460024CA
:1030F000304618F8041004F04EFD4021304604F02C
:10310000ABFD0128F9D1641CE4B2082CF0D37F1C7C
:10311000FFB2052FEBD399F80100032822D18C4987
:103120008E394878022801D84D7001E0401E487061
:103130008748497836380027C171804600243046D8
:1031400018F8041004F027FD4021304604F084FDF7
:103150000128F9D1641CE4B2082CF0D37F1CFFB223
:10316000052FEBD399F80100042822D178498A3938
:103170004878022801D84D7001E0401E487074481C
:1031800049782D380027C17180460024304618F850
:10319000041004F000FD4021304604F05DFD0128DC
:1031A000F9D1641CE4B2082CF0D37F1CFFB2052FC8
:1031B000EBD399F80100052822D165498639487872
:1031C000022801D84D7001E0401E487060484978DF
:1031D00024380027C17180460024304618F80410B6
:1031E00004F0D9FC4021304604F036FD0128F9D125
:1031F000641CE4B2082CF0D37F1CFFB2052FEBD384
:1032000099F80100062820D15149823948780228CE
:1032100001D84D7001E0401E48704D4F48781B3F6B
:103220000025F87100243046395D04F0B4FC4021DB
:10323000304604F011FD0128F9D1641CE4B2082CD9
:10324000F1D36D1CEDB2052DECD3FFF71DFBFCE1B6
:103250000720AAF8000098F80100C725C1460128F8
:103260001ED14878C72801D34D7001E0401C48703A
:103270004878D071002790460024304618F8041092
:1032800004F089FC4021304604F0E6FC0128F9D125
:10329000641CE4B2082CF0D37F1CFFB2052FEBD3E3
:1032A00099F80100022822D1294992394878C72883
:1032B00001D34D7001E0401C4870254849783F38E3
:1032C0000027C17180460024304618F8041004F02D
:1032D00062FC4021304604F0BFFC0128F9D1641C97
:1032E000E4B2082CF0D37F1CFFB2052FEBD399F882
:1032F0000100032822D116498E394878C72801D306
:103300004D7001E0401C487011484978363800275C
:10331000C17180460024304618F8041004F03BFCCC
:103320004021304604F098FC0128F9D1641CE4B235
:10333000082CF0D37F1CFFB2052FEBD399F80100C6
:10334000042824D102498A394878C72804D301E0E7
:10335000590100204D7001E0401C4870FA4849783E
:103360000027C17180460024304618F8041004F08C
:1033700012FC4021304604F06FFC0128F9D1641C96
:10338000E4B2082CF0D37F1CFFB2052FEBD399F8E1
:103390000100052822D1EC4959394878C72801D3C2
:1033A0004D7001E0401C4870E7484978093000271B
:1033B000C17180460024304618F8041004F0EBFB7D
:1033C0004021304604F048FC0128F9D1641CE4B2E5
:1033D000082CF0D37F1CFFB2052FEBD399F8010026
:1033E000C846062820D1D84955394878C72801D37E
:1033F0004D7001E0401C4870D34F487812370025CB
:10340000F87100243046395D04F0C5FB4021304698
:1034100004F022FC0128F9D1641CE4B2082CF1D399
:103420006D1CEDB2052DECD3FFF72EFA4BE1072012
:10343000AAF8000098F80100C2464FF041080128A0
:1034400026D108780A2802D8404681F80080C0B208
:10345000401FBD4A0870513A0027D071C8708AF8E1
:103460001F5091460024304619F8041004F093FBD5
:103470004021304600E02AE104F0EEFB0128F7D1BC
:10348000641CE4B2082CEED37F1CFFB2052FE9D3F5
:103490009AF80100022826D1AB49653908780A2834
:1034A00002D8404681F80080C0B2401FA64A08708A
:1034B000483A0027D071C8708AF8205091460024FD
:1034C000304619F8041004F066FB4021304604F041
:1034D000C3FB0128F9D1641CE4B2082CF0D37F1C93
:1034E000FFB2052FEBD39AF80100032826D19649A5
:1034F000613908780A2802D8404681F80080C0B2B5
:10350000401F914A08703F3A0027D071C8708AF86E
:10351000215091460024304619F8041004F03BFB7A
:103520004021304604F098FB0128F9D1641CE4B234
:10353000082CF0D37F1CFFB2052FEBD305E089E008
:10354000C8E003E13CE175E1AEE19AF8010004282E
:1035500026D17D495D3908780A2802D8404681F88D
:103560000080C0B2401F784A0870363A0027D071F8
:10357000C8708AF8225091460024304619F8041089
:1035800004F009FB4021304604F066FB0128F9D124
:10359000641CE4B2082CF0D37F1CFFB2052FEBD3E0
:1035A0009AF80100052826D16749593908780A2870
:1035B00002D8404681F80080C0B2401F624A0870BD
:1035C0002D3A0027D071C8708AF823509146002404
:1035D000304619F8041004F0DEFA4021304604F0B9
:1035E0003BFB0128F9D1641CE4B2082CF0D37F1C0A
:1035F000FFB2052FEBD39AF80100D146062824D15B
:103600005149553908780A2802D8404681F8008087
:10361000C0B24D4F401F243F0870F871C87089F840
:103620002450002500243046395D04F0B4FA4021CE
:10363000304604F011FB0128F9D1641CE4B2082CD7
:10364000F1D36D1CEDB2052DECD399F8031089F878
:1036500002103CE0AAF8002098F80400414630B17E
:103660000020087128B1C3F89C418C7206E001204B
:10367000F7E718B9C3F89CB181F80AB00846897A0F
:1036800049018172C27A00251144027B1144427BB8
:103690001144827B1144C27B114488F81610F971E1
:1036A00000243046395D04F076FA4021304604F0BB
:1036B000D3FA0128F9D1641CE4B2082CF1D36D1CB3
:1036C000EDB2052DECD398F8031088F80210002015
:1036D000BDE8F09FAAF8002098F80500414630B1F7
:1036E0000020487128B1C3F89841CC7206E001204F
:1036F000F7E718B9C3F898B181F80BB00846C97A52
:103700000901C172827A00241144027B1144427B78
:103710001144827B1144C27B114488F81610F97160
:1037200000253046795D04F036FA4021304604F039
:1037300093FA0128F9D16D1CEDB2082DF1D3641C68
:10374000E4B2052CECD3BEE72C010020AAF800203F
:1037500098F80600424630B10020907128B1C1F8B7
:10376000BC41147306E00120F7E718B9C1F8BCB1F9
:1037700082F80CB0117B1046C9001173927AC37A9B
:1037800000251A441144427B1144827B1144C27BC0
:10379000114488F81610F97100243046395D04F0A0
:1037A000FAF94021304604F057FA0128F9D1641C97
:1037B000E4B2082CF1D36D1CEDB2052DECD382E7F9
:1037C000AAF8002098F80700424630B10020D071D6
:1037D00028B1C1F8B841547306E00120F7E718B9E1
:1037E000C1F8B8B182F80DB0517B10468900517311
:1037F000927AC37A00251A44037B1A441144827BCF
:103800001144C27B114488F81610F9710024304627
:10381000395D04F0C0F94021304604F01DFA01285A
:10382000F9D1641CE4B2082CF1D36D1CEDB2052D66
:10383000ECD348E7AAF8002098F80800424630B1D7
:103840000020107228B1C1F8B441947306E0012041
:10385000F7E718B9C1F8B4B182F80EB0917B104601
:1038600049009173927AC37A00251A44037B1A4463
:10387000437B1A441144C27B114488F81610F97135
:1038800000243046395D04F086F94021304604F0CA
:10389000E3F90128F9D1641CE4B2082CF1D36D1CC2
:1038A000EDB2052DECD30EE7AAF8002098F8090038
:1038B000424630B10020507228B1C1F8B041D473F3
:1038C00006E00120F7E718B9C1F8B0B182F80FB0EF
:1038D0001046917AD27A00251144027B1144427B32
:1038E0001144827B1144C27B114488F81610F9718F
:1038F00000243046395D04F04EF94021304604F092
:10390000ABF90128F9D1641CE4B2082CF1D36D1C89
:10391000EDB2052DECD3D6E62DE9F05FFE4800F1BF
:1039200018020178D171011D00F121030A78DA71C2
:103930000A1D00F12A041378E371131D00F1330509
:103940001C78EC711C1D00F13C062578F571251DD5
:1039500000F145072E78FE7100F14E08477888F88F
:10396000077000F1570A4F788AF8077000F1600677
:103970005778F77109365F78F77109366778F7710C
:1039800000F17B076E78FE71867800F1840900F102
:103990008D0B89F8076089788BF80710963091783D
:1039A000C17109309978C1710930A178C171A878C5
:1039B00002F1A9010025D94EC871633F00243046A9
:1039C000395D04F0E8F84021304604F045F901285B
:1039D000F9D1641CE4B2082CF1D36D1CEDB2022DB8
:1039E000ECD3C82002F06FFF002547460024304684
:1039F000395D04F0D0F84021304604F02DF901285B
:103A0000F9D1641CE4B2082CF1D36D1CEDB2022D87
:103A1000ECD3C82002F057FF00254F460024304663
:103A2000395D04F0B8F84021304604F015F901285A
:103A3000F9D1641CE4B2082CF1D36D1CEDB2022D57
:103A4000ECD3C82002F03FFFB34F002521370024FC
:103A50003046395D04F09FF84021304604F0FCF810
:103A60000128F9D1641CE4B2082CF1D36D1CEDB22D
:103A7000022DECD3C82002F026FF00255746002473
:103A80003046395D04F087F84021304604F0E4F810
:103A90000128F9D1641CE4B2082CF1D36D1CEDB2FD
:103AA000022DECD3C82002F00EFF00255F46002453
:103AB0003046395D04F06FF84021304604F0CCF810
:103AC0000128F9D1641CE4B2082CF1D36D1CEDB2CD
:103AD000022DECD3C82002F0F6FE8F4F00252A37C6
:103AE00000243046395D04F056F84021304604F099
:103AF000B3F80128F9D1641CE4B2082CF1D36D1C91
:103B0000EDB2022DECD3C82002F0DDFE824F00257D
:103B1000603700243046395D04F03DF840213046DE
:103B200004F09AF80128F9D1641CE4B2082CF1D30E
:103B30006D1CEDB2022DECD3C82002F0C4FE764F0E
:103B40000025963700243046395D04F024F84021E2
:103B5000304604F081F80128F9D1641CE4B2082C45
:103B6000F1D36D1CEDB2022DECD3C82002F0ABFEF8
:103B7000694F0025333700243046395D04F00BF8D7
:103B80004021304604F068F80128F9D1641CE4B201
:103B9000082CF1D36D1CEDB2022DECD3C82002F03D
:103BA00092FE5D4F0025693700243046395D03F0F1
:103BB000F2FF4021304604F04FF80128F9D1641C8F
:103BC000E4B2082CF1D36D1CEDB2022DECD3C82069
:103BD00002F079FE504F00259F3700243046395DB2
:103BE00003F0D9FF4021304604F036F80128F9D11E
:103BF000641CE4B2082CF1D36D1CEDB2022DECD3A1
:103C0000C82002F060FE444F00253C3700243046B7
:103C1000395D03F0C0FF4021304604F01DF8012853
:103C2000F9D1641CE4B2082CF1D36D1CEDB2022D65
:103C3000ECD3C82002F047FE374F0025723700242E
:103C40003046395D03F0A7FF4021304604F004F808
:103C50000128F9D1641CE4B2082CF1D36D1CEDB23B
:103C6000022DECD3C82002F02EFE2B4F0025A837E2
:103C700000243046395D03F08EFF4021304603F0CA
:103C8000EBFF0128F9D1641CE4B2082CF1D36D1CC0
:103C9000EDB2022DECD3C82002F015FE1E4D00241B
:103CA000453500273046E95D03F075FF4021304679
:103CB00003F0D2FF0128F9D17F1CFFB2082FF1D306
:103CC000641CE4B2022CECD3C82002F0FCFD124FBD
:103CD00000257B3700243046395D03F05CFF40212E
:103CE000304603F0B9FF0128F9D1641CE4B2082C76
:103CF000F1D36D1CEDB2022DECD3C82002F0E3FD30
:103D0000054F0025B13700243046395D03F043FFED
:103D10004021304604E00000C30000200044004081
:103D200003F09AFF0128F3D1641CE4B2082CEBD312
:103D30006D1CEDB2022DE6D3CAE4C148C1494078FA
:103D400000EB8000400008807047BD48BE49001D60
:103D5000407800EB8000400008807047B848BB49BD
:103D60000830407800EB8000400008807047B4487D
:103D7000B7490C30407800EB800040000880704765
:103D8000AF48B4491030407800EB80004000088014
:103D90007047AB48B0491430407800EB80004000D9
:103DA000088070472DE9F04F85B0132264216846E2
:103DB00001F074FEA2499DF800000A1D08708346B8
:103DC0009DF8010048709DF8020088709DF803007E
:103DD000107082469DF8040050709DF80500131D78
:103DE00090709DF80600187081469DF80700587085
:103DF0009DF808001C1D98709DF8098084F80080CB
:103E00009DF80A0060709DF80B00A070251D9DF8BC
:103E10000CC085F800C09DF80D0068709DF80E007C
:103E2000A8702E1D9DF80F7037709DF810007070EF
:103E30009DF81100B07081F803B082F803A083F8F8
:103E4000039084F8038085F803C0F77005B0BDE8DF
:103E5000F08F2DE9F05F7A4E0024263EDFF8FC91CA
:103E60003578DFF8FCB1DFF8FC81A806A2464FF0F8
:103E7000020721D47249C87830B1F77799F8002049
:103E800032B1401EC87003E08BF8007086F81FA0A6
:103E90006B48C9781830C17169481830015D4046D7
:103EA00003F079FE4021404603F0D6FE0128F9D107
:103EB000641CE4B2082CEFD3E80624D46049091D41
:103EC000C87838B186F8207099F8002032B1401EC9
:103ED000C87003E08BF8007086F820A05848C978B5
:103EE00021300024C17156482130015D404603F065
:103EF00052FE4021404603F0AFFE0128F9D1641C78
:103F0000E4B2082CEFD3280724D44D490831C878EF
:103F100038B186F8217099F8002032B1401EC8707F
:103F200003E086F821A08BF800704548C9782A3054
:103F30000024C17142482A30015D404603F02BFE47
:103F40004021404603F088FE0128F9D1641CE4B208
:103F5000082CEFD3680724D439490C31C87838B11C
:103F600086F8227099F8002032B1401EC87003E034
:103F700086F822A08BF800703148C97833300024CD
:103F8000C1712F483330015D404603F004FE4021EB
:103F9000404603F061FE0128F9D1641CE4B2082C0C
:103FA000EFD3A80724D426491031C87838B186F851
:103FB000237099F8002032B1401EC87003E086F8E3
:103FC00023A08BF800701E48C9783C300024C171D2
:103FD0001B483C30015D404603F0DDFD402140467A
:103FE00003F03AFE0128F9D1641CE4B2082CEFD3A7
:103FF000E80723D112491431C87838B186F8237004
:1040000099F8002032B1401EC87003E086F824A061
:104010008BF800700A4EC87845360024F07145468A
:10402000315D284603F0B7FD4021284603F014FE19
:104030000128F9D1641CE4B2082CF1D37CE600001D
:10404000C3000020380200203A0200203C02002079
:104050003E020020400200204202002022000020F8
:104060005002002000440040008870472DE9F041D4
:1040700016460F460546002407E037F81410284678
:1040800003F065FB641CA4B2AD1CB442F5D3BDE8DB
:10409000F08110B5002305E030F8024B21F8134001
:1040A0005B1C9BB29342F7D310BD2DE9F05FA0F1EA
:1040B0000064154688468246B4F5002F50D203F0BE
:1040C0004AFAE70AC4F34906C6F58064A54200D857
:1040D0002C46DFF89CB04FF0006000EBC720814613
:1040E0004FF480622249FFF7D4FF00204FF6FF72A1
:1040F00006E033183BF81310914203D1401C80B204
:10410000A042F6D3A04223D2484603F05EFA002034
:104110005A4606E038F810108319401C22F8131094
:1041200080B2A042F6D348464FF480621049FFF7B0
:104130009DFFA54210D0281B08EB4408A24400268E
:1041400085B24FF480647F1CA542C4D82C46C2E7D8
:10415000224641465046EAE7BDE8F05F03F007BA61
:10416000BDE8F09F13B5012201A9FFF79EFF1CBD1A
:104170002A2A002070B506F0AFFAFA4D40F2255118
:10418000284603F073FD78B1284603F008FDF64C8D
:10419000C1B22269FF2A07DAF4488154284603F0A5
:1041A000FAFC2069401C2061BDE8704006F09FBA0F
:1041B000ED49097C0170ED48704738B5684602F05A
:1041C000FBFC0179407900EB012084B22146E8A094
:1041D0000BF088F8B4F5C07F2AD00EDC142C25D063
:1041E00004DC102C1ED0122C12D11DE0B4F5917FEE
:1041F00020D0B4F5927F0BD121E004F6EB74B4F536
:10420000005409D0022C09D0052C09D01B2C01D058
:10421000002038BD012038BD042038BD052038BD40
:10422000062038BD072038BD082038BD092038BD1C
:104230000A2038BDCC4901200871022038BD032076
:1042400038BD70B5044686B00121082003F04BFE4E
:104250000121880403F050FEC24D284603F0A2FB62
:104260002815ADF8100003208DF812001820C74E55
:104270008DF8130004A9304603F079F8E814ADF87E
:10428000100004208DF8130004A9304603F06FF8E5
:1042900000940024ADF808400C20ADF80440ADF8BF
:1042A0000A00ADF80640ADF80C406946284603F018
:1042B000A9FB0121284603F018FC012240F22551F8
:1042C000284603F01CFC27208DF814008DF81540BB
:1042D00001208DF816008DF8170005A802F09DFF4B
:1042E000A148C48106B070BD0FB4D0B55DB105AAB8
:1042F000284604990AF0E4FF28460BF061F986B2DB
:104300000024984F11E0A2A00AF0ECFFD0BC5DF8A9
:1043100014FB4021384603F09FFC0028F9D0295DAA
:10432000384603F038FC641CA4B2B442F1D3EDE784
:1043300010B58C4C0146204603F02DFC8021204610
:1043400003F08AFC0028F9D010BD2DE9F0410D469C
:1043500006460024834F0AE0315D384603F01BFC1B
:104360008021384603F078FC0028F9D0641CAC4268
:10437000F2D3BDE8F08110B5044602E0641CFFF7FB
:10438000D7FF20780028F9D110BD0020774A0146D8
:104390001154401CC0B2FF28FAD3734882F8FF10B2
:1043A0000161704770490A780869824202D008703A
:1043B0000020704700200870012070470178A5296F
:1043C00002D140785A2801D0002070470120704760
:1043D00010B503460078012202E09C5C6040521C4C
:1043E0008A42FADB10BD10B50446C07801F078FCB3
:1043F000401EC1B22046FFF7EBFFE178814201D1B8
:10440000022010BD002010BD08B5684602F0D4FBA4
:10441000FFF7D4FF012801D0002008BD022008BD0D
:10442000FEB50025504E2F464E3600210846325C20
:10443000401CC0B211440A28F9D3B1720024305D87
:1044400002F0BFFB641CE4B20F2CF8D302A8CDE944
:10445000007000230122194618460AF08EF95148CF
:10446000007808B10120FEBD6D1CEDB2142DDCD327
:104470000020FEBDF8B53C4E3069002871DDFFF725
:1044800091FF00286DD0FFF7BFFF02281ED146A084
:1044900002F0A4FBFFF791FE4C4B4D4F0024012589
:1044A000062813D2DFE800F0F7033CCC1629684653
:1044B000FFF77EFE027AB28146A1184602F0C8FBE1
:1044C000307B10F0010F02D0C7F8A041E3E0C7F83D
:1044D000A051E0E06846FFF76BFE027AB28145A189
:1044E000184602F0B5FB307B10F0010F02D0C7F880
:1044F000A441D0E0C7F8A451CDE06846FFF758FECC
:10450000027AB28133A1184602F0A2FB307B10F090
:10451000010F02D0C7F89C41BDE0C7F89C51BAE03A
:104520006846FFF745FE027AB2813BA1184602F0C9
:104530008FFBB1893F4811F0040F02D0C0F8A041B1
:1045400001E0C0F8A05111F0020F02D0C0F89C4168
:1045500001E0C0F89C5111F0010F6ED0C0F89841F5
:1045600099E09AE000480040D80100202A3200205B
:10457000CAD5B5BDB5C4CAFDBEDDBCC4B4E6C6F778
:10458000B5D8D6B7CEAAA3BA25780000000C014052
:104590007533206D616C6C6F63206572726F720D84
:1045A0000A000000A80200207A6F75207961206659
:1045B000656E6720666666666666666666666666D9
:1045C00066666666666666660D0A00000044004020
:1045D000000024420D0A20B4F2BFAACBAEB1C3B290
:1045E000D9D7F7CAD6B6CED6B8C1EE202564200DED
:1045F0000A0000000D0A20B4F2BFAAB3E9C7E5CB58
:10460000AEB5BDD3AAD1F8D2BACDB0D6D0D6B8C146
:10461000EE202564200D0A000D0A20C8D5B9E2B5A8
:10462000C6B2D9D7F7CAD6B6CED6B8C1EE20256461
:10463000200D0A0000802242FFE7C0F898512AE0CE
:104640006846FFF7B5FD027AB281EBA1184602F089
:10465000FFFAB189EF4811F0080F02D0C0F8884185
:1046600001E0C0F8885111F0040F02D0C0F88C416D
:1046700001E0C0F88C5111F0020F02D0C0F8904157
:1046800001E0C0F8905111F0010F02D0C0F8944140
:1046900001E0C0F89451FFF778FEF8BD70B5002432
:1046A000054620462346401CEE5C8E4202D1641C27
:1046B000944202D05B1C462BF5DB70BD70B51446EE
:1046C0000D46064602F047FF352003F054F9304608
:1046D00002F07BFF05E02978304603F014F86D1CEA
:1046E000361D641EA4B2F6D2352003F044F9BDE8AD
:1046F000704002F03CBF03E010F8043B01F8013BBE
:10470000521E92B2F8D2704710B5C34CA069FFF7A1
:10471000ABFCC2B22272C1496069FFF7BAFC206AE1
:10472000FFF7A2FCC2B2BD4962721E31E069FFF719
:10473000B0FCA06AFFF798FCC2B2A272B749606AE7
:10474000BDE810403C31FFF7A4BC2DE9F04101F079
:1047500009FCB14B10F0FF054FF0030003F13004EA
:10476000587001D0012100E0022199706071A1719F
:104770005979E1710020AA4A04E0165C2718401C10
:104780003E72C0B28842F8D30831C9B29A7900208B
:104790006254A44F561C08E001EB000E17F800C04D
:1047A000A644401C8EF801C0C0B2B042F4D38818B1
:1047B000401CC0B2DA79002122549B4E531C07E002
:1047C00000EB010C775CA444491C8CF80170C9B261
:1047D0009942F5D31044401CC2B2002375B18E4EED
:1047E0000021924F2C3602EB010C705C491C04F83E
:1047F0000C00C9B23B700529F5D306E00020111862
:10480000401CC0B263540528F9D3521D8248D7B268
:10481000791E3030FFF7DCFDE119002601F8010CAC
:10482000E77004E0A05DFFF783FD761CF6B2BE42A0
:10483000F8D328469DE52DE9F047002402F083F9DE
:104840004FF4FA735A007AA17AA002F089F97CA198
:104850007E480AF0A3FEDFF8C091002670B97CA163
:104860007A480AF09BFE48B97CA178480AF096FE87
:1048700020B97DA175480AF091FE50B101240420B1
:1048800089F802007B4806707B48C0F8A041C0F858
:10489000AC61614D99F801003035687199F80200FA
:1048A000A87199F80300C8B399F80510E9710020C0
:1048B0005B4A04E0135C2F18401C3B72C0B2884274
:1048C000F8D30831C8B299F8067000212F54DFF8E8
:1048D00054817B1C08E000EB010C18F80120AC446B
:1048E000491C8CF80120C9B29942F4D33844401CC9
:1048F000C1B299F8073000206B54DFF82C815F1C9F
:1049000008E001EB000C18F80020AC44401C8CF8C7
:104910000120C0B2B842F4D3C8183DE0FFE799F8CF
:104920000810E97100203D4A04E0135C2F18401C78
:104930003B72C0B28842F8D30831C9B299F8097005
:10494000DFF8D88000206F5408F11E087B1C08E0B7
:1049500001EB000C18F80020AC44401C8CF801203E
:10496000C0B29842F4D33944491CC9B299F80A70CC
:10497000DFF8A88000206F5408F13C087B1C08E099
:1049800001EB000C18F80020AC44401C8CF801200E
:10499000C0B29842F4D3C819401CC1B234B100204F
:1049A0000A18401CC0B2AE540528F9D3491D1A4854
:1049B000CFB2791E3030FFF70BFDE91901F8010C79
:1049C000EF7044B1002604E0A85DFFF7B1FC761C4F
:1049D000F6B2BE42F8D32046BDE8F08710B50023FA
:1049E0001A4605E010F8014B02F10102E318D2B2B9
:1049F0008A42F7D3D8B210BD0D0A20B7E7C9C8B2B2
:104A0000D9D7F7CAD6B6CED6B8C1EE202564200DC8
:104A10000A00000000002342D801002029330020B2
:104A200084430020A2430020C04300201400002043
:104A30004F4B000041542B435245473F0D0A0000A5
:104A40002B435245473A20322C300000D4430020FB
:104A50002B435245473A20322C3200002B4352451B
:104A6000473A20322C3300002B435245473A20323C
:104A70002C340000010000200080224281070CD16C
:104A80006421B0FBF1F201FB120141B94FF4C8718E
:104A9000B0FBF1F201FB120008B1002070470120C9
:104AA00070472DE9F05F99460546DDE90AAB002322
:104AB000A0F2B27090468C46822802D30120BDE855
:104AC000F09F40F2B274DD4EDD4F08E02046FFF764
:104AD000D5FF08B1334400E03B44641CA4B2AC42AF
:104AE000F4D3ACF1010C0CF0FF060024D54FDFF835
:104AF00058C30EE0385D40F2A321484303EBC013D6
:104B00002846FFF7BBFF10B1012C00D16344641CA1
:104B1000A4B2B442EED340F2A32108FB01F0CA498B
:104B200003EBC01049420144C9EB4912C2EB092012
:104B300001EB0011CAEB0A1001EB800000EB0B0443
:104B400001214FF0C05003F0D7F9012004F0E6F83E
:104B5000204603F037FA03F067FA0020AFE77CB590
:104B6000002401214FF0C05003F0C6F9012004F0E9
:104B7000D5F8042004F0A3F845F25005A84244D02B
:104B8000B2A1B74802F064F804F070F8012003F015
:104B900045F904E0641CE4B20A2001F094FE4120CF
:104BA00003F0C5F818B1FA2C04D301207CBDFA2C0F
:104BB000F0D3FAE74FF4807003F041F9012003F0DD
:104BC00043F903F031FA03F035FA0121084603F006
:104BD000D9F903F029FA03F0DEF947F6FF7003F084
:104BE000FEF903F021FA37212A20CDE90001112333
:104BF0000E22062140F2E370FFF753FF03F0D2F9D3
:104C00002946042004F054F807E003F013FA0121C8
:104C1000084603F0B7F903F007FA03208DF8000007
:104C200000208DF801008DF8020001208DF80300AE
:104C3000684602F0F2FA00207CBD30B56423B0FB78
:104C4000F3F4B0FBF3F5E4B203FB1500132C01D928
:104C50006430C0B200EB90030724B3FBF4F504FB0F
:104C60001533784D1A440C3D0D44800715F8015C4E
:104C70002A4492B203D1032901D2521E92B2B2FB4E
:104C8000F4F004FB102030BD2DE9F04103F091F960
:104C9000DFF8B4C10546B0FBFCF37248724E0188E0
:104CA00099422FD0038040F2B2744FF4B7774FF49B
:104CB000B6780FE02046FFF7E1FE38B1BB4202D3E1
:104CC000A3F5B77304E0641CA4B205E0A3F26D136E
:104CD000641CA4B24345EDD8B4800024594F0BE0C6
:104CE000B088FFF7CBFE08B1012C2ED0385D98427A
:104CF00004D81B1A641CA4B21C2BF1D2641CB4711E
:104D00005B1CF371B5FBFCF00CFB10504FF46161C0
:104D1000B0FBF1F23270B0FBF1F201FB12033C2266
:104D2000B3FBF2F37370B0FBF1F301FB1300B0FBC4
:104D3000F2F102FB1100B070F279B179B088FFF79F
:104D40007CFF30720020BDE8F0811D2BD6D31D3BC7
:104D5000D0E710B5012003F086F908B1FFF794FF02
:104D6000022003F080F920B1022003F08AF9FFF756
:104D70008BFF052003F085F9BDE8104003F054B91E
:104D80002DE9F05F99460546DDE90AAB0023A0F264
:104D9000B27090468C46822801D301208FE640F203
:104DA000B274264E264F08E02046FFF767FE08B192
:104DB000334400E03B44641CA4B2AC42F4D3ACF1F5
:104DC000010C0CF0FF0600241E4FDFF87CC00EE043
:104DD000385D40F2A321484303EBC0132846FFF798
:104DE0004DFE10B1012C00D16344641CA4B2B44246
:104DF000EED340F2A32108FB01F0134903EBC010EE
:104E000049420144C9EB4912C2EB092001EB0011F0
:104E1000CAEB0A1001EB800000EB0B0401214FF0FC
:104E2000C05003F069F8012003F078FF204603F03A
:104E3000E4F803F0F9F8002041E600000085E20103
:104E40008033E101100A0108805101000D0A20C9D8
:104E5000E8D6C3CAB1D6D3202020200D0A00000016
:104E600000440040360200207A3300207FB50D4612
:104E700004460121022003F03FF8ADF80440ADF8EC
:104E8000005000246C4DADF80640ADF80240694674
:104E9000284603F097F901221146284603F04FFCFB
:104EA0001D218DF80C108DF80D4003208DF80E009B
:104EB00001208DF80F0003A802F0AFF90121284668
:104EC00003F028FC7FBD70B505F006FC5A4C0121AB
:104ED000204603F048FE00284FD00121204603F071
:104EE0004EFE56480078E8B355480078D0B3554D8B
:104EF000554C2878800607D45448007820B1208883
:104F0000401C2080FCF7EEFD2878C00607D45048EE
:104F1000007820B16088401C6080FCF747F8287852
:104F2000000707D44B48007820B1A088401CA0801F
:104F3000FCF7BFFC2878400707D44748007820B129
:104F4000E088401CE080FCF78EFB2878800707D4BF
:104F50004248007820B12089401C2081FCF768FA83
:104F6000287800E009E0C00707D13D48007820B16B
:104F70006089401C6081FCF735F9BDE8704005F0A0
:104F8000B6BB30B50D46044689B00121022002F0BF
:104F9000B3FF0121112002F0A6FF0121314802F0E8
:104FA00071FA4FF47072ADF81C2018228DF81F2092
:104FB00003208DF81E0007A92B4802F0D8F9ADF8A0
:104FC0001440ADF8105000241B4DADF81640ADF85C
:104FD000124004A9284603F0F5F87021ADF800103E
:104FE0000120ADF80200ADF808406946284603F0FC
:104FF00022F96946284603F053F96946284603F02A
:105000008BF96946284603F0C1F90821284603F0C8
:105010005FFC0821284603F06BFC0821284603F0BA
:1050200071FC0821284603F073FC0121284603F097
:1050300071FB09B030BD00000004004008000020F2
:10504000220000209D00002044020020BC0000201F
:10505000BD000020BE000020BF000020C0000020D6
:10506000C1000020000C1A00001001402DE9FF478C
:105070000121612002F037FF4FF2BC30ADF80C0087
:1050800048208DF80F0003A9FE4802F070F94FF494
:105090008064ADF80C4028258DF80F5003A9FA481C
:1050A00002F065F90A21032002F015FA00260094A7
:1050B0008DF8046008278DF8057001248DF80640EE
:1050C000684603F06DFD0C21042002F004FA200371
:1050D00000908DF804600C208DF805008DF80640D6
:1050E000684603F05DFD0221042002F0F4F94FF060
:1050F00004096846CDF8009003F052FD0321042016
:1051000002F0E9F96846009703F04AFD04210846D9
:1051100002F0E1F910200090684603F041FD0521FE
:10512000042002F0D8F920200090684603F038FDF2
:105130000721042002F0CFF980200090684603F098
:105140002FFD0821042002F0C6F9200200906846D5
:1051500003F026FD0921042002F0BDF96002009051
:10516000684603F01DFD0B21042002F0B4F9E002B3
:105170000090684603F014FD0D21042002F0ABF905
:1051800060030090684603F00BFD0E21042002F03E
:10519000A2F9A0030090684603F002FD0F2104204D
:1051A00002F099F9E0030090684603F0F9FC8DF8ED
:1051B00008504FF002088DF8098003258DF80A5039
:1051C0008DF80B4002A802F028F817208DF808008F
:1051D0008DF809808DF80A908DF80B4002A802F036
:1051E0001CF88DF808708DF809508DF80A808DF83C
:1051F0000B4002A802F011F809208DF808008DF884
:1052000009508DF80A408DF80B4002A802F005F80D
:105210000A208DF808008DF809508DF80A608DF885
:105220000B4002A801F0F9FFBDE8FF8710B505F0BB
:1052300053FA0421934802F0F0F828B99348817892
:1052400011B1C189491CC181042003F007FDBDE8EB
:10525000104005F04CBA10B505F03EFA0821894817
:1052600002F0DBF828B98948817811B18189491C9D
:105270008181082003F0F2FCBDE8104005F037BA48
:1052800010B505F029FA10217E4802F0C6F828B9B9
:105290007E48417811B14189491C4181102003F0B9
:1052A000DDFCBDE8104005F022BA70B505F014FA37
:1052B000202003F0C5FC734E744C01280CD1202132
:1052C000304602F0AAF820B9607810B12089401C5D
:1052D0002081202003F0C2FC802003F0B1FC0128D3
:1052E0000CD18021304602F098F820B9E07810B156
:1052F000608A401C6082802003F0B0FC4FF480750F
:10530000284603F09DFC01280CD12946304602F0C6
:1053100084F820B9E07810B1208A401C2082284609
:1053200003F09CFC4FF40075284603F089FC01282B
:105330000CD12946304602F070F820B9A07910B19E
:10534000E08B401CE083284603F088FCBDE87040F9
:1053500005F0CDB970B505F0BFF94FF4806528466A
:1053600003F06EFC494C012823D1142001F0ABFA64
:10537000454E2946304602F050F8012816D1142037
:1053800001F0A1FA2946304602F047F801280DD174
:105390000A2001F098FA2946304602F03EF801282A
:1053A00004D13B48007808B102202070284603F061
:1053B00055FC4FF40065284603F042FC314E0128AD
:1053C0000CD12946304602F028F820B9A07910B156
:1053D000A08B401CA083284603F040FC4FF480556E
:1053E000284603F02DFC01280CD12946304602F056
:1053F00014F820B9607910B1608B401C6083284696
:1054000003F02CFC4FF40055284603F019FC01284A
:105410000CD12946304602F000F820B9607910B16D
:10542000208B401C2083284603F018FC4FF4804555
:10543000284603F005FC01280CD12946304601F02E
:10544000ECFF20B9207910B1E08A401CE0822846A8
:1054500003F004FC4FF40045284603F0F1FB01285B
:105460000CD12946304601F0D8FF20B9207910B17F
:10547000A08A401CA082284603F0F0FBBDE87040E3
:1054800008E0000000180140001401405002002014
:10549000B600002005F02BB9F0B5564E1E210320B2
:1054A00073784FF496724EF66025C3B174893389D0
:1054B000DFF844C19C4206D9E71ABFB2974202D333
:1054C0008CF8001009E09C4203D21F1BBFB2974228
:1054D000F6D2AC4203D3AB4201D370813081B378B2
:1054E000C3B1F489B389DFF814C19C4206D9E71A25
:1054F000BFB2974202D38CF8001009E09C4203D25D
:105500001F1BBFB29742F6D2AC4203D3AB4201D3CA
:10551000F081B081F378C3B1748A338ADFF8E0C0D8
:105520009C4206D9E71ABFB2974202D38CF800100A
:1055300009E09C4203D21F1BBFB29742F6D2AC4295
:1055400003D3AB4201D3708230823379C3B1F48A82
:10555000B38ADFF8B0C09C4206D9E71ABFB29742BF
:1055600002D38CF8001009E09C4203D21F1BBFB28B
:105570009742F6D2AC4203D3AB4201D3F082B08261
:105580007379C3B1748B338BDFF87CC09C4206D92E
:10559000E71ABFB2974202D38CF8001009E09C4290
:1055A00003D21F1BBFB29742F6D2AC4203D3AB4229
:1055B00001D370833083B379002B1AD0F48BB38B73
:1055C000124F9C4207D9A4EB030C1FFA8CFC9445A4
:1055D00001D339700BE09C4205D2A3EB040C1FFAF7
:1055E0008CFC9445F5D2AC4203D3AB4201D3F0839B
:1055F000B083F0BD50020020700200207102002034
:105600007202002073020020740200207502002044
:1056100030B587B001214FF4067002F064FC4FF4FE
:10562000004002F0F4FB0320ADF8140000248DF8D4
:10563000174005A9584801F09AFE3F20ADF8140024
:105640008DF8174005A9554801F091FE544D2846A4
:1056500003F0AEFB01214FF46020CDE902048DF888
:1056600004108DF8101000948DF805406946284606
:1056700003F0BAFB0121284603F0DEFB284603F0C5
:10568000F8FB284603F0FAFB0028FAD1284603F07D
:10569000FCFB284603F0FEFB0028FAD107B030BD22
:1056A00010B53F4C014607230122204603F01CFCA5
:1056B0000121204603F0F5FB0221204603F0E8FC1F
:1056C0000028F9D02046BDE8104003F051BC2DE978
:1056D000F04100250E4607462C4608E03846FFF705
:1056E000DFFF0544052001F0EEF8641CE4B2B4428B
:1056F000F4D3B5FBF6F080B2BDE8F08110B5092017
:10570000FFF7CEFF2749B0F5C87F01D3022000E0A4
:105710000020087010BD10B50920FFF7C1FF224915
:10572000B0F5C87F01D3022000E00020087010BD52
:1057300010B50920FFF7B4FF1C49B0F5C87F01D3AD
:10574000022000E00020087010BD10B50920FFF70E
:10575000A7FF1749B0F5C87F01D3022000E0002061
:10576000087010BD10B50920FFF79AFF1149B0F578
:10577000C87F01D3022000E00020087010BD10B5E2
:105780000920FFF78DFF0C49B0F5C87F01D3022037
:1057900000E00020087010BD000C01400010014026
:1057A0000024014051020020520200205302002038
:1057B00054020020550200205602002070B5064613
:1057C0000024734D03E0641CE4B2C82C0FD80221FE
:1057D000284603F091FD0028F5D03146284603F015
:1057E00047FD002405E0641CE4B2C82C01D9002068
:1057F00070BD0121284603F07FFD0028F3D0284624
:1058000003F038FDC0B270BD30B587B0012108206B
:1058100002F069FB0121880302F06EFB4FF4604443
:10582000ADF8144018208DF817000320594D8DF85D
:10583000160005A9284601F09AFD2146284601F0E8
:1058400000FE0020ADF800004FF48271ADF80210A8
:10585000ADF804000221ADF806100121ADF80810E2
:105860004902ADF80A103821ADF80C10ADF80E0061
:105870000720474CADF810006946204603F054FC61
:105880000121204603F0CCFCFF20FFF797FF07B073
:1058900030BD01463E48028822F03802028002886C
:1058A0000A430280012103F0BBBC10B586B0012180
:1058B00041F2040002F017FBE020ADF814001820BC
:1058C0008DF817000320344C8DF8160005A92046EA
:1058D00001F04DFDE021204601F0B3FD0020ADF8C0
:1058E00000004FF48271ADF80210ADF804000221FF
:1058F000ADF806100121ADF808104902ADF80A1004
:105900003821ADF80C10ADF80E000720234CADF88F
:1059100010006946204603F007FC0121204603F0F1
:105920007FFCFF20FFF74AFF06B010BD01461B4871
:10593000028822F03802028002880A430280012194
:1059400003F06EBC70B506460024144D03E0641CE1
:10595000E4B2C82C0FD80221284603F0CDFC002861
:10596000F5D03146284603F083FC002405E0641C92
:10597000E4B2C82C01D9002070BD0121284603F0F3
:10598000BBFC0028F3D0284603F074FCC0B270BD05
:1059900000380040000C0140000801400030014088
:1059A00070B5C94D0024C5F89041902005F5C87523
:1059B000FFF7C8FF0020FFF7C5FF0020FFF7C2FF79
:1059C0000020FFF7BFFFFF20FFF7BCFF44EA0024E1
:1059D000FF20FFF7B7FF20430121296070BD38B5D4
:1059E0000121042002F07FFA1020ADF800008DF8AC
:1059F00003000320B54C8DF802006946204601F0F3
:105A0000B6FC1021204601F01CFDAF490120C1F871
:105A10009001FFF74AFF0020FFF788FFFFF7C0FF64
:105A2000AB49088038BD10B5A74C0020C4F89001E0
:105A3000052004F5C874FFF785FFFF20FFF782FFFC
:105A40000121216010BD70B59F4C00210546C4F8AE
:105A50009011012004F5C874FFF774FF2846FFF782
:105A600071FF0120206070BD10B5974C0020C4F874
:105A70009001062004F5C874FFF764FF0120206040
:105A800010BD10B5904C0020C4F89001042004F51E
:105A9000C874FFF757FF0120206010BD2DE9F041C9
:105AA000894F0646002015460C46C7F89001032092
:105AB000FFF748FFC4F30740FFF744FFC4F3072094
:105AC000FFF740FFE0B2FFF73DFF002405E0FF20B5
:105AD000FFF738FF3055641CA4B2AC42F7D3012065
